{
  "contractName": "ERC721NFT",
  "abi": [
    {
      "inputs": [],
      "stateMutability": "nonpayable",
      "type": "constructor"
    },
    {
      "anonymous": false,
      "inputs": [
        {
          "indexed": true,
          "internalType": "address",
          "name": "owner",
          "type": "address"
        },
        {
          "indexed": true,
          "internalType": "address",
          "name": "approved",
          "type": "address"
        },
        {
          "indexed": true,
          "internalType": "uint256",
          "name": "tokenId",
          "type": "uint256"
        }
      ],
      "name": "Approval",
      "type": "event"
    },
    {
      "anonymous": false,
      "inputs": [
        {
          "indexed": true,
          "internalType": "address",
          "name": "owner",
          "type": "address"
        },
        {
          "indexed": true,
          "internalType": "address",
          "name": "operator",
          "type": "address"
        },
        {
          "indexed": false,
          "internalType": "bool",
          "name": "approved",
          "type": "bool"
        }
      ],
      "name": "ApprovalForAll",
      "type": "event"
    },
    {
      "anonymous": false,
      "inputs": [
        {
          "indexed": true,
          "internalType": "address",
          "name": "from",
          "type": "address"
        },
        {
          "indexed": true,
          "internalType": "address",
          "name": "to",
          "type": "address"
        },
        {
          "indexed": true,
          "internalType": "uint256",
          "name": "tokenId",
          "type": "uint256"
        }
      ],
      "name": "Transfer",
      "type": "event"
    },
    {
      "inputs": [
        {
          "internalType": "address",
          "name": "to",
          "type": "address"
        },
        {
          "internalType": "uint256",
          "name": "tokenId",
          "type": "uint256"
        }
      ],
      "name": "approve",
      "outputs": [],
      "stateMutability": "nonpayable",
      "type": "function"
    },
    {
      "inputs": [
        {
          "internalType": "address",
          "name": "owner",
          "type": "address"
        }
      ],
      "name": "balanceOf",
      "outputs": [
        {
          "internalType": "uint256",
          "name": "",
          "type": "uint256"
        }
      ],
      "stateMutability": "view",
      "type": "function",
      "constant": true
    },
    {
      "inputs": [
        {
          "internalType": "uint256",
          "name": "tokenId",
          "type": "uint256"
        }
      ],
      "name": "getApproved",
      "outputs": [
        {
          "internalType": "address",
          "name": "",
          "type": "address"
        }
      ],
      "stateMutability": "view",
      "type": "function",
      "constant": true
    },
    {
      "inputs": [
        {
          "internalType": "uint256",
          "name": "",
          "type": "uint256"
        }
      ],
      "name": "hashes",
      "outputs": [
        {
          "internalType": "string",
          "name": "",
          "type": "string"
        }
      ],
      "stateMutability": "view",
      "type": "function",
      "constant": true
    },
    {
      "inputs": [
        {
          "internalType": "address",
          "name": "owner",
          "type": "address"
        },
        {
          "internalType": "address",
          "name": "operator",
          "type": "address"
        }
      ],
      "name": "isApprovedForAll",
      "outputs": [
        {
          "internalType": "bool",
          "name": "",
          "type": "bool"
        }
      ],
      "stateMutability": "view",
      "type": "function",
      "constant": true
    },
    {
      "inputs": [],
      "name": "name",
      "outputs": [
        {
          "internalType": "string",
          "name": "",
          "type": "string"
        }
      ],
      "stateMutability": "view",
      "type": "function",
      "constant": true
    },
    {
      "inputs": [
        {
          "internalType": "uint256",
          "name": "tokenId",
          "type": "uint256"
        }
      ],
      "name": "ownerOf",
      "outputs": [
        {
          "internalType": "address",
          "name": "",
          "type": "address"
        }
      ],
      "stateMutability": "view",
      "type": "function",
      "constant": true
    },
    {
      "inputs": [
        {
          "internalType": "address",
          "name": "from",
          "type": "address"
        },
        {
          "internalType": "address",
          "name": "to",
          "type": "address"
        },
        {
          "internalType": "uint256",
          "name": "tokenId",
          "type": "uint256"
        }
      ],
      "name": "safeTransferFrom",
      "outputs": [],
      "stateMutability": "nonpayable",
      "type": "function"
    },
    {
      "inputs": [
        {
          "internalType": "address",
          "name": "from",
          "type": "address"
        },
        {
          "internalType": "address",
          "name": "to",
          "type": "address"
        },
        {
          "internalType": "uint256",
          "name": "tokenId",
          "type": "uint256"
        },
        {
          "internalType": "bytes",
          "name": "_data",
          "type": "bytes"
        }
      ],
      "name": "safeTransferFrom",
      "outputs": [],
      "stateMutability": "nonpayable",
      "type": "function"
    },
    {
      "inputs": [
        {
          "internalType": "address",
          "name": "operator",
          "type": "address"
        },
        {
          "internalType": "bool",
          "name": "approved",
          "type": "bool"
        }
      ],
      "name": "setApprovalForAll",
      "outputs": [],
      "stateMutability": "nonpayable",
      "type": "function"
    },
    {
      "inputs": [
        {
          "internalType": "bytes4",
          "name": "interfaceId",
          "type": "bytes4"
        }
      ],
      "name": "supportsInterface",
      "outputs": [
        {
          "internalType": "bool",
          "name": "",
          "type": "bool"
        }
      ],
      "stateMutability": "view",
      "type": "function",
      "constant": true
    },
    {
      "inputs": [],
      "name": "symbol",
      "outputs": [
        {
          "internalType": "string",
          "name": "",
          "type": "string"
        }
      ],
      "stateMutability": "view",
      "type": "function",
      "constant": true
    },
    {
      "inputs": [
        {
          "internalType": "uint256",
          "name": "index",
          "type": "uint256"
        }
      ],
      "name": "tokenByIndex",
      "outputs": [
        {
          "internalType": "uint256",
          "name": "",
          "type": "uint256"
        }
      ],
      "stateMutability": "view",
      "type": "function",
      "constant": true
    },
    {
      "inputs": [
        {
          "internalType": "address",
          "name": "owner",
          "type": "address"
        },
        {
          "internalType": "uint256",
          "name": "index",
          "type": "uint256"
        }
      ],
      "name": "tokenOfOwnerByIndex",
      "outputs": [
        {
          "internalType": "uint256",
          "name": "",
          "type": "uint256"
        }
      ],
      "stateMutability": "view",
      "type": "function",
      "constant": true
    },
    {
      "inputs": [
        {
          "internalType": "uint256",
          "name": "tokenId",
          "type": "uint256"
        }
      ],
      "name": "tokenURI",
      "outputs": [
        {
          "internalType": "string",
          "name": "",
          "type": "string"
        }
      ],
      "stateMutability": "view",
      "type": "function",
      "constant": true
    },
    {
      "inputs": [],
      "name": "totalSupply",
      "outputs": [
        {
          "internalType": "uint256",
          "name": "",
          "type": "uint256"
        }
      ],
      "stateMutability": "view",
      "type": "function",
      "constant": true
    },
    {
      "inputs": [
        {
          "internalType": "address",
          "name": "from",
          "type": "address"
        },
        {
          "internalType": "address",
          "name": "to",
          "type": "address"
        },
        {
          "internalType": "uint256",
          "name": "tokenId",
          "type": "uint256"
        }
      ],
      "name": "transferFrom",
      "outputs": [],
      "stateMutability": "nonpayable",
      "type": "function"
    },
    {
      "inputs": [
        {
          "internalType": "string",
          "name": "hash",
          "type": "string"
        }
      ],
      "name": "mint",
      "outputs": [
        {
          "internalType": "uint256",
          "name": "",
          "type": "uint256"
        }
      ],
      "stateMutability": "nonpayable",
      "type": "function"
    },
    {
      "inputs": [
        {
          "internalType": "uint256",
          "name": "price",
          "type": "uint256"
        }
      ],
      "name": "intToEther",
      "outputs": [
        {
          "internalType": "uint256",
          "name": "",
          "type": "uint256"
        }
      ],
      "stateMutability": "pure",
      "type": "function",
      "constant": true
    },
    {
      "inputs": [
        {
          "internalType": "uint256",
          "name": "id",
          "type": "uint256"
        }
      ],
      "name": "getString",
      "outputs": [
        {
          "internalType": "string",
          "name": "",
          "type": "string"
        }
      ],
      "stateMutability": "view",
      "type": "function",
      "constant": true
    }
  ],
  "bytecode": "0x60806040523480156200001157600080fd5b506040518060400160405280601081526020017f417373657473466f724d6f62696c696f000000000000000000000000000000008152506040518060400160405280600381526020017f41464d000000000000000000000000000000000000000000000000000000000081525081600090816200008f919062000371565b508060019081620000a1919062000371565b505050600c806001815401808255809150506001900390600052602060002001600060405180606001604052806036815260200162003cf96036913990919091509081620000f0919062000371565b5062000458565b600081519050919050565b7f4e487b7100000000000000000000000000000000000000000000000000000000600052604160045260246000fd5b7f4e487b7100000000000000000000000000000000000000000000000000000000600052602260045260246000fd5b600060028204905060018216806200017957607f821691505b6020821081036200018f576200018e62000131565b5b50919050565b60008190508160005260206000209050919050565b60006020601f8301049050919050565b600082821b905092915050565b600060088302620001f97fffffffffffffffffffffffffffffffffffffffffffffffffffffffffffffffff82620001ba565b620002058683620001ba565b95508019841693508086168417925050509392505050565b6000819050919050565b6000819050919050565b6000620002526200024c62000246846200021d565b62000227565b6200021d565b9050919050565b6000819050919050565b6200026e8362000231565b620002866200027d8262000259565b848454620001c7565b825550505050565b600090565b6200029d6200028e565b620002aa81848462000263565b505050565b5b81811015620002d257620002c660008262000293565b600181019050620002b0565b5050565b601f8211156200032157620002eb8162000195565b620002f684620001aa565b8101602085101562000306578190505b6200031e6200031585620001aa565b830182620002af565b50505b505050565b600082821c905092915050565b6000620003466000198460080262000326565b1980831691505092915050565b600062000361838362000333565b9150826002028217905092915050565b6200037c82620000f7565b67ffffffffffffffff81111562000398576200039762000102565b5b620003a4825462000160565b620003b1828285620002d6565b600060209050601f831160018114620003e95760008415620003d4578287015190505b620003e0858262000353565b86555062000450565b601f198416620003f98662000195565b60005b828110156200042357848901518255600182019150602085019450602081019050620003fc565b868310156200044357848901516200043f601f89168262000333565b8355505b6001600288020188555050505b505050505050565b61389180620004686000396000f3fe608060405234801561001057600080fd5b506004361061012c5760003560e01c80636352211e116100ad578063b7c763b511610071578063b7c763b51461037b578063b88d4fde146103ab578063c87b56dd146103c7578063d85d3d27146103f7578063e985e9c5146104275761012c565b80636352211e146102b157806370a08231146102e157806395d89b41146103115780639d1c1a311461032f578063a22cb4651461035f5761012c565b806323b872dd116100f457806323b872dd146101e95780632f745c591461020557806342842e0e146102355780634f6ccce714610251578063501895ae146102815761012c565b806301ffc9a71461013157806306fdde0314610161578063081812fc1461017f578063095ea7b3146101af57806318160ddd146101cb575b600080fd5b61014b6004803603810190610146919061215a565b610457565b60405161015891906121a2565b60405180910390f35b6101696104d1565b6040516101769190612256565b60405180910390f35b610199600480360381019061019491906122ae565b610563565b6040516101a6919061231c565b60405180910390f35b6101c960048036038101906101c49190612363565b6105e8565b005b6101d36106ff565b6040516101e091906123b2565b60405180910390f35b61020360048036038101906101fe91906123cd565b61070c565b005b61021f600480360381019061021a9190612363565b61071c565b60405161022c91906123b2565b60405180910390f35b61024f600480360381019061024a91906123cd565b6107c1565b005b61026b600480360381019061026691906122ae565b6107e1565b60405161027891906123b2565b60405180910390f35b61029b600480360381019061029691906122ae565b610852565b6040516102a89190612256565b60405180910390f35b6102cb60048036038101906102c691906122ae565b6108fe565b6040516102d8919061231c565b60405180910390f35b6102fb60048036038101906102f69190612420565b6109af565b60405161030891906123b2565b60405180910390f35b610319610a66565b6040516103269190612256565b60405180910390f35b610349600480360381019061034491906122ae565b610af8565b60405161035691906123b2565b60405180910390f35b61037960048036038101906103749190612479565b610b15565b005b610395600480360381019061039091906122ae565b610c95565b6040516103a29190612256565b60405180910390f35b6103c560048036038101906103c091906125ee565b610d45565b005b6103e160048036038101906103dc91906122ae565b610da7565b6040516103ee9190612256565b60405180910390f35b610411600480360381019061040c9190612712565b610ef8565b60405161041e91906123b2565b60405180910390f35b610441600480360381019061043c919061275b565b61101c565b60405161044e91906121a2565b60405180910390f35b60007f780e9d63000000000000000000000000000000000000000000000000000000007bffffffffffffffffffffffffffffffffffffffffffffffffffffffff1916827bffffffffffffffffffffffffffffffffffffffffffffffffffffffff191614806104ca57506104c9826110b0565b5b9050919050565b6060600080546104e0906127ca565b80601f016020809104026020016040519081016040528092919081815260200182805461050c906127ca565b80156105595780601f1061052e57610100808354040283529160200191610559565b820191906000526020600020905b81548152906001019060200180831161053c57829003601f168201915b5050505050905090565b600061056e82611192565b6105ad576040517f08c379a00000000000000000000000000000000000000000000000000000000081526004016105a49061286d565b60405180910390fd5b6004600083815260200190815260200160002060009054906101000a900473ffffffffffffffffffffffffffffffffffffffff169050919050565b60006105f3826108fe565b90508073ffffffffffffffffffffffffffffffffffffffff168373ffffffffffffffffffffffffffffffffffffffff1603610663576040517f08c379a000000000000000000000000000000000000000000000000000000000815260040161065a906128ff565b60405180910390fd5b8073ffffffffffffffffffffffffffffffffffffffff166106826111fe565b73ffffffffffffffffffffffffffffffffffffffff1614806106b157506106b0816106ab6111fe565b61101c565b5b6106f0576040517f08c379a00000000000000000000000000000000000000000000000000000000081526004016106e790612991565b60405180910390fd5b6106fa8383611206565b505050565b6000600880549050905090565b6107178383836112bf565b505050565b6000610727836109af565b8210610768576040517f08c379a000000000000000000000000000000000000000000000000000000000815260040161075f90612a23565b60405180910390fd5b600660008473ffffffffffffffffffffffffffffffffffffffff1673ffffffffffffffffffffffffffffffffffffffff168152602001908152602001600020600083815260200190815260200160002054905092915050565b6107dc83838360405180602001604052806000815250610d45565b505050565b60006107eb6106ff565b821061082c576040517f08c379a000000000000000000000000000000000000000000000000000000000815260040161082390612ab5565b60405180910390fd5b600882815481106108405761083f612ad5565b5b90600052602060002001549050919050565b600c818154811061086257600080fd5b90600052602060002001600091509050805461087d906127ca565b80601f01602080910402602001604051908101604052809291908181526020018280546108a9906127ca565b80156108f65780601f106108cb576101008083540402835291602001916108f6565b820191906000526020600020905b8154815290600101906020018083116108d957829003601f168201915b505050505081565b6000806002600084815260200190815260200160002060009054906101000a900473ffffffffffffffffffffffffffffffffffffffff169050600073ffffffffffffffffffffffffffffffffffffffff168173ffffffffffffffffffffffffffffffffffffffff16036109a6576040517f08c379a000000000000000000000000000000000000000000000000000000000815260040161099d90612b76565b60405180910390fd5b80915050919050565b60008073ffffffffffffffffffffffffffffffffffffffff168273ffffffffffffffffffffffffffffffffffffffff1603610a1f576040517f08c379a0000000000000000000000000000000000000000000000000000000008152600401610a1690612c08565b60405180910390fd5b600360008373ffffffffffffffffffffffffffffffffffffffff1673ffffffffffffffffffffffffffffffffffffffff168152602001908152602001600020549050919050565b606060018054610a75906127ca565b80601f0160208091040260200160405190810160405280929190818152602001828054610aa1906127ca565b8015610aee5780601f10610ac357610100808354040283529160200191610aee565b820191906000526020600020905b815481529060010190602001808311610ad157829003601f168201915b5050505050905090565b6000670de0b6b3a764000082610b0e9190612c57565b9050919050565b610b1d6111fe565b73ffffffffffffffffffffffffffffffffffffffff168273ffffffffffffffffffffffffffffffffffffffff1603610b8a576040517f08c379a0000000000000000000000000000000000000000000000000000000008152600401610b8190612cfd565b60405180910390fd5b8060056000610b976111fe565b73ffffffffffffffffffffffffffffffffffffffff1673ffffffffffffffffffffffffffffffffffffffff16815260200190815260200160002060008473ffffffffffffffffffffffffffffffffffffffff1673ffffffffffffffffffffffffffffffffffffffff16815260200190815260200160002060006101000a81548160ff0219169083151502179055508173ffffffffffffffffffffffffffffffffffffffff16610c446111fe565b73ffffffffffffffffffffffffffffffffffffffff167f17307eab39ab6107e8899845ad3d59bd9653f200f220920489ca2b5937696c3183604051610c8991906121a2565b60405180910390a35050565b6060600c8281548110610cab57610caa612ad5565b5b906000526020600020018054610cc0906127ca565b80601f0160208091040260200160405190810160405280929190818152602001828054610cec906127ca565b8015610d395780601f10610d0e57610100808354040283529160200191610d39565b820191906000526020600020905b815481529060010190602001808311610d1c57829003601f168201915b50505050509050919050565b610d56610d506111fe565b8361151a565b610d95576040517f08c379a0000000000000000000000000000000000000000000000000000000008152600401610d8c90612d8f565b60405180910390fd5b610da1848484846115f8565b50505050565b6060610db282611192565b610df1576040517f08c379a0000000000000000000000000000000000000000000000000000000008152600401610de890612e21565b60405180910390fd5b6000600a60008481526020019081526020016000208054610e11906127ca565b80601f0160208091040260200160405190810160405280929190818152602001828054610e3d906127ca565b8015610e8a5780601f10610e5f57610100808354040283529160200191610e8a565b820191906000526020600020905b815481529060010190602001808311610e6d57829003601f168201915b505050505090506000610e9b611654565b90506000815103610eb0578192505050610ef3565b600082511115610ee5578082604051602001610ecd929190612e7d565b60405160208183030381529060405292505050610ef3565b610eee8461166b565b925050505b919050565b6000801515600d83604051610f0d9190612ea1565b908152602001604051809103902060009054906101000a900460ff16151514610f6b576040517f08c379a0000000000000000000000000000000000000000000000000000000008152600401610f6290612f04565b60405180910390fd5b6001600d83604051610f7d9190612ea1565b908152602001604051809103902060006101000a81548160ff0219169083151502179055506001600b6000828254610fb59190612f24565b925050819055506000600b549050600c83908060018154018082558091505060019003906000526020600020016000909190919091509081610ff79190613126565b506110096110036111fe565b82611712565b6110138184611733565b80915050919050565b6000600560008473ffffffffffffffffffffffffffffffffffffffff1673ffffffffffffffffffffffffffffffffffffffff16815260200190815260200160002060008373ffffffffffffffffffffffffffffffffffffffff1673ffffffffffffffffffffffffffffffffffffffff16815260200190815260200160002060009054906101000a900460ff16905092915050565b60007f80ac58cd000000000000000000000000000000000000000000000000000000007bffffffffffffffffffffffffffffffffffffffffffffffffffffffff1916827bffffffffffffffffffffffffffffffffffffffffffffffffffffffff1916148061117b57507f5b5e139f000000000000000000000000000000000000000000000000000000007bffffffffffffffffffffffffffffffffffffffffffffffffffffffff1916827bffffffffffffffffffffffffffffffffffffffffffffffffffffffff1916145b8061118b575061118a826117a0565b5b9050919050565b60008073ffffffffffffffffffffffffffffffffffffffff166002600084815260200190815260200160002060009054906101000a900473ffffffffffffffffffffffffffffffffffffffff1673ffffffffffffffffffffffffffffffffffffffff1614159050919050565b600033905090565b816004600083815260200190815260200160002060006101000a81548173ffffffffffffffffffffffffffffffffffffffff021916908373ffffffffffffffffffffffffffffffffffffffff160217905550808273ffffffffffffffffffffffffffffffffffffffff16611279836108fe565b73ffffffffffffffffffffffffffffffffffffffff167f8c5be1e5ebec7d5bd14f71427d1e84f3dd0314c0f7b2291e5b200ac8c7c3b92560405160405180910390a45050565b8273ffffffffffffffffffffffffffffffffffffffff166112df826108fe565b73ffffffffffffffffffffffffffffffffffffffff1614611335576040517f08c379a000000000000000000000000000000000000000000000000000000000815260040161132c9061326a565b60405180910390fd5b600073ffffffffffffffffffffffffffffffffffffffff168273ffffffffffffffffffffffffffffffffffffffff16036113a4576040517f08c379a000000000000000000000000000000000000000000000000000000000815260040161139b906132fc565b60405180910390fd5b6113af83838361180a565b6113ba600082611206565b6001600360008573ffffffffffffffffffffffffffffffffffffffff1673ffffffffffffffffffffffffffffffffffffffff168152602001908152602001600020600082825461140a919061331c565b925050819055506001600360008473ffffffffffffffffffffffffffffffffffffffff1673ffffffffffffffffffffffffffffffffffffffff16815260200190815260200160002060008282546114619190612f24565b92505081905550816002600083815260200190815260200160002060006101000a81548173ffffffffffffffffffffffffffffffffffffffff021916908373ffffffffffffffffffffffffffffffffffffffff160217905550808273ffffffffffffffffffffffffffffffffffffffff168473ffffffffffffffffffffffffffffffffffffffff167fddf252ad1be2c89b69c2b068fc378daa952ba7f163c4a11628f55a4df523b3ef60405160405180910390a4505050565b600061152582611192565b611564576040517f08c379a000000000000000000000000000000000000000000000000000000000815260040161155b906133c2565b60405180910390fd5b600061156f836108fe565b90508073ffffffffffffffffffffffffffffffffffffffff168473ffffffffffffffffffffffffffffffffffffffff1614806115de57508373ffffffffffffffffffffffffffffffffffffffff166115c684610563565b73ffffffffffffffffffffffffffffffffffffffff16145b806115ef57506115ee818561101c565b5b91505092915050565b6116038484846112bf565b61160f8484848461191c565b61164e576040517f08c379a000000000000000000000000000000000000000000000000000000000815260040161164590613454565b60405180910390fd5b50505050565b606060405180602001604052806000815250905090565b606061167682611192565b6116b5576040517f08c379a00000000000000000000000000000000000000000000000000000000081526004016116ac906134e6565b60405180910390fd5b60006116bf611654565b905060008151116116df576040518060200160405280600081525061170a565b806116e984611aa3565b6040516020016116fa929190612e7d565b6040516020818303038152906040525b915050919050565b61171c8282611c03565b6117268282611dd0565b61172f81611e4f565b5050565b61173c82611192565b61177b576040517f08c379a000000000000000000000000000000000000000000000000000000000815260040161177290613578565b60405180910390fd5b80600a6000848152602001908152602001600020908161179b9190613126565b505050565b60007f01ffc9a7000000000000000000000000000000000000000000000000000000007bffffffffffffffffffffffffffffffffffffffffffffffffffffffff1916827bffffffffffffffffffffffffffffffffffffffffffffffffffffffff1916149050919050565b611815838383611e98565b600073ffffffffffffffffffffffffffffffffffffffff168373ffffffffffffffffffffffffffffffffffffffff16036118575761185281611e4f565b611896565b8173ffffffffffffffffffffffffffffffffffffffff168373ffffffffffffffffffffffffffffffffffffffff1614611895576118948382611e9d565b5b5b600073ffffffffffffffffffffffffffffffffffffffff168273ffffffffffffffffffffffffffffffffffffffff16036118d8576118d38161200a565b611917565b8273ffffffffffffffffffffffffffffffffffffffff168273ffffffffffffffffffffffffffffffffffffffff1614611916576119158282611dd0565b5b5b505050565b600061193d8473ffffffffffffffffffffffffffffffffffffffff166120db565b15611a96578373ffffffffffffffffffffffffffffffffffffffff1663150b7a026119666111fe565b8786866040518563ffffffff1660e01b815260040161198894939291906135ed565b6020604051808303816000875af19250505080156119c457506040513d601f19601f820116820180604052508101906119c1919061364e565b60015b611a46573d80600081146119f4576040519150601f19603f3d011682016040523d82523d6000602084013e6119f9565b606091505b506000815103611a3e576040517f08c379a0000000000000000000000000000000000000000000000000000000008152600401611a3590613454565b60405180910390fd5b805181602001fd5b63150b7a0260e01b7bffffffffffffffffffffffffffffffffffffffffffffffffffffffff1916817bffffffffffffffffffffffffffffffffffffffffffffffffffffffff191614915050611a9b565b600190505b949350505050565b606060008203611aea576040518060400160405280600181526020017f30000000000000000000000000000000000000000000000000000000000000008152509050611bfe565b600082905060005b60008214611b1c578080611b059061367b565b915050600a82611b1591906136f2565b9150611af2565b60008167ffffffffffffffff811115611b3857611b376124c3565b5b6040519080825280601f01601f191660200182016040528015611b6a5781602001600182028036833780820191505090505b5090505b60008514611bf757600182611b83919061331c565b9150600a85611b929190613723565b6030611b9e9190612f24565b60f81b818381518110611bb457611bb3612ad5565b5b60200101907effffffffffffffffffffffffffffffffffffffffffffffffffffffffffffff1916908160001a905350600a85611bf091906136f2565b9450611b6e565b8093505050505b919050565b600073ffffffffffffffffffffffffffffffffffffffff168273ffffffffffffffffffffffffffffffffffffffff1603611c72576040517f08c379a0000000000000000000000000000000000000000000000000000000008152600401611c69906137a0565b60405180910390fd5b611c7b81611192565b15611cbb576040517f08c379a0000000000000000000000000000000000000000000000000000000008152600401611cb29061380c565b60405180910390fd5b611cc76000838361180a565b6001600360008473ffffffffffffffffffffffffffffffffffffffff1673ffffffffffffffffffffffffffffffffffffffff1681526020019081526020016000206000828254611d179190612f24565b92505081905550816002600083815260200190815260200160002060006101000a81548173ffffffffffffffffffffffffffffffffffffffff021916908373ffffffffffffffffffffffffffffffffffffffff160217905550808273ffffffffffffffffffffffffffffffffffffffff16600073ffffffffffffffffffffffffffffffffffffffff167fddf252ad1be2c89b69c2b068fc378daa952ba7f163c4a11628f55a4df523b3ef60405160405180910390a45050565b6000611ddb836109af565b905081600660008573ffffffffffffffffffffffffffffffffffffffff1673ffffffffffffffffffffffffffffffffffffffff168152602001908152602001600020600083815260200190815260200160002081905550806007600084815260200190815260200160002081905550505050565b6008805490506009600083815260200190815260200160002081905550600881908060018154018082558091505060019003906000526020600020016000909190919091505550565b505050565b60006001611eaa846109af565b611eb4919061331c565b9050600060076000848152602001908152602001600020549050818114611f99576000600660008673ffffffffffffffffffffffffffffffffffffffff1673ffffffffffffffffffffffffffffffffffffffff168152602001908152602001600020600084815260200190815260200160002054905080600660008773ffffffffffffffffffffffffffffffffffffffff1673ffffffffffffffffffffffffffffffffffffffff168152602001908152602001600020600084815260200190815260200160002081905550816007600083815260200190815260200160002081905550505b6007600084815260200190815260200160002060009055600660008573ffffffffffffffffffffffffffffffffffffffff1673ffffffffffffffffffffffffffffffffffffffff16815260200190815260200160002060008381526020019081526020016000206000905550505050565b6000600160088054905061201e919061331c565b905060006009600084815260200190815260200160002054905060006008838154811061204e5761204d612ad5565b5b9060005260206000200154905080600883815481106120705761206f612ad5565b5b9060005260206000200181905550816009600083815260200190815260200160002081905550600960008581526020019081526020016000206000905560088054806120bf576120be61382c565b5b6001900381819060005260206000200160009055905550505050565b600080823b905060008111915050919050565b6000604051905090565b600080fd5b600080fd5b60007fffffffff0000000000000000000000000000000000000000000000000000000082169050919050565b61213781612102565b811461214257600080fd5b50565b6000813590506121548161212e565b92915050565b6000602082840312156121705761216f6120f8565b5b600061217e84828501612145565b91505092915050565b60008115159050919050565b61219c81612187565b82525050565b60006020820190506121b76000830184612193565b92915050565b600081519050919050565b600082825260208201905092915050565b60005b838110156121f75780820151818401526020810190506121dc565b83811115612206576000848401525b50505050565b6000601f19601f8301169050919050565b6000612228826121bd565b61223281856121c8565b93506122428185602086016121d9565b61224b8161220c565b840191505092915050565b60006020820190508181036000830152612270818461221d565b905092915050565b6000819050919050565b61228b81612278565b811461229657600080fd5b50565b6000813590506122a881612282565b92915050565b6000602082840312156122c4576122c36120f8565b5b60006122d284828501612299565b91505092915050565b600073ffffffffffffffffffffffffffffffffffffffff82169050919050565b6000612306826122db565b9050919050565b612316816122fb565b82525050565b6000602082019050612331600083018461230d565b92915050565b612340816122fb565b811461234b57600080fd5b50565b60008135905061235d81612337565b92915050565b6000806040838503121561237a576123796120f8565b5b60006123888582860161234e565b925050602061239985828601612299565b9150509250929050565b6123ac81612278565b82525050565b60006020820190506123c760008301846123a3565b92915050565b6000806000606084860312156123e6576123e56120f8565b5b60006123f48682870161234e565b93505060206124058682870161234e565b925050604061241686828701612299565b9150509250925092565b600060208284031215612436576124356120f8565b5b60006124448482850161234e565b91505092915050565b61245681612187565b811461246157600080fd5b50565b6000813590506124738161244d565b92915050565b600080604083850312156124905761248f6120f8565b5b600061249e8582860161234e565b92505060206124af85828601612464565b9150509250929050565b600080fd5b600080fd5b7f4e487b7100000000000000000000000000000000000000000000000000000000600052604160045260246000fd5b6124fb8261220c565b810181811067ffffffffffffffff8211171561251a576125196124c3565b5b80604052505050565b600061252d6120ee565b905061253982826124f2565b919050565b600067ffffffffffffffff821115612559576125586124c3565b5b6125628261220c565b9050602081019050919050565b82818337600083830152505050565b600061259161258c8461253e565b612523565b9050828152602081018484840111156125ad576125ac6124be565b5b6125b884828561256f565b509392505050565b600082601f8301126125d5576125d46124b9565b5b81356125e584826020860161257e565b91505092915050565b60008060008060808587031215612608576126076120f8565b5b60006126168782880161234e565b94505060206126278782880161234e565b935050604061263887828801612299565b925050606085013567ffffffffffffffff811115612659576126586120fd565b5b612665878288016125c0565b91505092959194509250565b600067ffffffffffffffff82111561268c5761268b6124c3565b5b6126958261220c565b9050602081019050919050565b60006126b56126b084612671565b612523565b9050828152602081018484840111156126d1576126d06124be565b5b6126dc84828561256f565b509392505050565b600082601f8301126126f9576126f86124b9565b5b81356127098482602086016126a2565b91505092915050565b600060208284031215612728576127276120f8565b5b600082013567ffffffffffffffff811115612746576127456120fd565b5b612752848285016126e4565b91505092915050565b60008060408385031215612772576127716120f8565b5b60006127808582860161234e565b92505060206127918582860161234e565b9150509250929050565b7f4e487b7100000000000000000000000000000000000000000000000000000000600052602260045260246000fd5b600060028204905060018216806127e257607f821691505b6020821081036127f5576127f461279b565b5b50919050565b7f4552433732313a20617070726f76656420717565727920666f72206e6f6e657860008201527f697374656e7420746f6b656e0000000000000000000000000000000000000000602082015250565b6000612857602c836121c8565b9150612862826127fb565b604082019050919050565b600060208201905081810360008301526128868161284a565b9050919050565b7f4552433732313a20617070726f76616c20746f2063757272656e74206f776e6560008201527f7200000000000000000000000000000000000000000000000000000000000000602082015250565b60006128e96021836121c8565b91506128f48261288d565b604082019050919050565b60006020820190508181036000830152612918816128dc565b9050919050565b7f4552433732313a20617070726f76652063616c6c6572206973206e6f74206f7760008201527f6e6572206e6f7220617070726f76656420666f7220616c6c0000000000000000602082015250565b600061297b6038836121c8565b91506129868261291f565b604082019050919050565b600060208201905081810360008301526129aa8161296e565b9050919050565b7f455243373231456e756d657261626c653a206f776e657220696e646578206f7560008201527f74206f6620626f756e6473000000000000000000000000000000000000000000602082015250565b6000612a0d602b836121c8565b9150612a18826129b1565b604082019050919050565b60006020820190508181036000830152612a3c81612a00565b9050919050565b7f455243373231456e756d657261626c653a20676c6f62616c20696e646578206f60008201527f7574206f6620626f756e64730000000000000000000000000000000000000000602082015250565b6000612a9f602c836121c8565b9150612aaa82612a43565b604082019050919050565b60006020820190508181036000830152612ace81612a92565b9050919050565b7f4e487b7100000000000000000000000000000000000000000000000000000000600052603260045260246000fd5b7f4552433732313a206f776e657220717565727920666f72206e6f6e657869737460008201527f656e7420746f6b656e0000000000000000000000000000000000000000000000602082015250565b6000612b606029836121c8565b9150612b6b82612b04565b604082019050919050565b60006020820190508181036000830152612b8f81612b53565b9050919050565b7f4552433732313a2062616c616e636520717565727920666f7220746865207a6560008201527f726f206164647265737300000000000000000000000000000000000000000000602082015250565b6000612bf2602a836121c8565b9150612bfd82612b96565b604082019050919050565b60006020820190508181036000830152612c2181612be5565b9050919050565b7f4e487b7100000000000000000000000000000000000000000000000000000000600052601160045260246000fd5b6000612c6282612278565b9150612c6d83612278565b9250817fffffffffffffffffffffffffffffffffffffffffffffffffffffffffffffffff0483118215151615612ca657612ca5612c28565b5b828202905092915050565b7f4552433732313a20617070726f766520746f2063616c6c657200000000000000600082015250565b6000612ce76019836121c8565b9150612cf282612cb1565b602082019050919050565b60006020820190508181036000830152612d1681612cda565b9050919050565b7f4552433732313a207472616e736665722063616c6c6572206973206e6f74206f60008201527f776e6572206e6f7220617070726f766564000000000000000000000000000000602082015250565b6000612d796031836121c8565b9150612d8482612d1d565b604082019050919050565b60006020820190508181036000830152612da881612d6c565b9050919050565b7f45524337323155524953746f726167653a2055524920717565727920666f722060008201527f6e6f6e6578697374656e7420746f6b656e000000000000000000000000000000602082015250565b6000612e0b6031836121c8565b9150612e1682612daf565b604082019050919050565b60006020820190508181036000830152612e3a81612dfe565b9050919050565b600081905092915050565b6000612e57826121bd565b612e618185612e41565b9350612e718185602086016121d9565b80840191505092915050565b6000612e898285612e4c565b9150612e958284612e4c565b91508190509392505050565b6000612ead8284612e4c565b915081905092915050565b7f686173682f746f6b656e20616c72656164792065786973740000000000000000600082015250565b6000612eee6018836121c8565b9150612ef982612eb8565b602082019050919050565b60006020820190508181036000830152612f1d81612ee1565b9050919050565b6000612f2f82612278565b9150612f3a83612278565b9250827fffffffffffffffffffffffffffffffffffffffffffffffffffffffffffffffff03821115612f6f57612f6e612c28565b5b828201905092915050565b60008190508160005260206000209050919050565b60006020601f8301049050919050565b600082821b905092915050565b600060088302612fdc7fffffffffffffffffffffffffffffffffffffffffffffffffffffffffffffffff82612f9f565b612fe68683612f9f565b95508019841693508086168417925050509392505050565b6000819050919050565b600061302361301e61301984612278565b612ffe565b612278565b9050919050565b6000819050919050565b61303d83613008565b6130516130498261302a565b848454612fac565b825550505050565b600090565b613066613059565b613071818484613034565b505050565b5b818110156130955761308a60008261305e565b600181019050613077565b5050565b601f8211156130da576130ab81612f7a565b6130b484612f8f565b810160208510156130c3578190505b6130d76130cf85612f8f565b830182613076565b50505b505050565b600082821c905092915050565b60006130fd600019846008026130df565b1980831691505092915050565b600061311683836130ec565b9150826002028217905092915050565b61312f826121bd565b67ffffffffffffffff811115613148576131476124c3565b5b61315282546127ca565b61315d828285613099565b600060209050601f831160018114613190576000841561317e578287015190505b613188858261310a565b8655506131f0565b601f19841661319e86612f7a565b60005b828110156131c6578489015182556001820191506020850194506020810190506131a1565b868310156131e357848901516131df601f8916826130ec565b8355505b6001600288020188555050505b505050505050565b7f4552433732313a207472616e73666572206f6620746f6b656e2074686174206960008201527f73206e6f74206f776e0000000000000000000000000000000000000000000000602082015250565b60006132546029836121c8565b915061325f826131f8565b604082019050919050565b6000602082019050818103600083015261328381613247565b9050919050565b7f4552433732313a207472616e7366657220746f20746865207a65726f2061646460008201527f7265737300000000000000000000000000000000000000000000000000000000602082015250565b60006132e66024836121c8565b91506132f18261328a565b604082019050919050565b60006020820190508181036000830152613315816132d9565b9050919050565b600061332782612278565b915061333283612278565b92508282101561334557613344612c28565b5b828203905092915050565b7f4552433732313a206f70657261746f7220717565727920666f72206e6f6e657860008201527f697374656e7420746f6b656e0000000000000000000000000000000000000000602082015250565b60006133ac602c836121c8565b91506133b782613350565b604082019050919050565b600060208201905081810360008301526133db8161339f565b9050919050565b7f4552433732313a207472616e7366657220746f206e6f6e20455243373231526560008201527f63656976657220696d706c656d656e7465720000000000000000000000000000602082015250565b600061343e6032836121c8565b9150613449826133e2565b604082019050919050565b6000602082019050818103600083015261346d81613431565b9050919050565b7f4552433732314d657461646174613a2055524920717565727920666f72206e6f60008201527f6e6578697374656e7420746f6b656e0000000000000000000000000000000000602082015250565b60006134d0602f836121c8565b91506134db82613474565b604082019050919050565b600060208201905081810360008301526134ff816134c3565b9050919050565b7f45524337323155524953746f726167653a2055524920736574206f66206e6f6e60008201527f6578697374656e7420746f6b656e000000000000000000000000000000000000602082015250565b6000613562602e836121c8565b915061356d82613506565b604082019050919050565b6000602082019050818103600083015261359181613555565b9050919050565b600081519050919050565b600082825260208201905092915050565b60006135bf82613598565b6135c981856135a3565b93506135d98185602086016121d9565b6135e28161220c565b840191505092915050565b6000608082019050613602600083018761230d565b61360f602083018661230d565b61361c60408301856123a3565b818103606083015261362e81846135b4565b905095945050505050565b6000815190506136488161212e565b92915050565b600060208284031215613664576136636120f8565b5b600061367284828501613639565b91505092915050565b600061368682612278565b91507fffffffffffffffffffffffffffffffffffffffffffffffffffffffffffffffff82036136b8576136b7612c28565b5b600182019050919050565b7f4e487b7100000000000000000000000000000000000000000000000000000000600052601260045260246000fd5b60006136fd82612278565b915061370883612278565b925082613718576137176136c3565b5b828204905092915050565b600061372e82612278565b915061373983612278565b925082613749576137486136c3565b5b828206905092915050565b7f4552433732313a206d696e7420746f20746865207a65726f2061646472657373600082015250565b600061378a6020836121c8565b915061379582613754565b602082019050919050565b600060208201905081810360008301526137b98161377d565b9050919050565b7f4552433732313a20746f6b656e20616c7265616479206d696e74656400000000600082015250565b60006137f6601c836121c8565b9150613801826137c0565b602082019050919050565b60006020820190508181036000830152613825816137e9565b9050919050565b7f4e487b7100000000000000000000000000000000000000000000000000000000600052603160045260246000fdfea2646970667358221220d827b2d02cd39f66a60490d94ca2b9640c3a46a3dea5a7efe5b7bfc1c509b06e64736f6c634300080f00334669727374204861736820746861742069732070757368656420746f2068617368657320417272617920666f722074657374696e6721",
  "immutableReferences": {},
  "source": "pragma solidity >= 0.7.0 < 0.9.0;\n//\"SPDX-License-Identifier: UNLICENSED\n\n//import \"@openzeppelin/contracts/token/ERC721/ERC721.sol\";\nimport \"@openzeppelin/contracts/utils/Context.sol\";\nimport \"@openzeppelin/contracts/token/ERC721/extensions/ERC721URIStorage.sol\";\n\ncontract ERC721NFT is ERC721URIStorage {\n\n    uint private _tokenIds;\n    string[] public hashes;\n    mapping(string => bool) private isExist; //IPFS Hashes stored\n\n\n    constructor() ERC721(\"AssetsForMobilio\", \"AFM\") {\n        hashes.push(\"First Hash that is pushed to hashes Array for testing!\");\n    }\n\n    function mint(string memory hash) public returns(uint) {\n        require(isExist[hash] == false, \"hash/token already exist\");\n        isExist[hash] = true;\n        _tokenIds += 1;\n        uint newTokenId = _tokenIds;\n        hashes.push(hash);\n        _mint(_msgSender(), newTokenId);\n        _setTokenURI(newTokenId, hash);\n        return newTokenId;\n    }\n\n    function intToEther(uint price) public pure returns (uint){\n        return price*1 ether;\n    }\n\n    function getString(uint id) public view returns (string memory){\n        return hashes[id];\n    }\n\n}",
  "sourcePath": "/home/blockr/Desktop/MetaTX/src/contracts/NFTAssets.sol",
  "compiler": {
    "name": "solc",
    "version": "0.8.15+commit.e14f2714.Emscripten.clang"
  },
  "schemaVersion": "3.4.6",
  "updatedAt": "2022-07-27T15:53:58.581Z",
  "networkType": "ethereum",
  "devdoc": {
    "kind": "dev",
    "methods": {
      "approve(address,uint256)": {
        "details": "See {IERC721-approve}."
      },
      "balanceOf(address)": {
        "details": "See {IERC721-balanceOf}."
      },
      "getApproved(uint256)": {
        "details": "See {IERC721-getApproved}."
      },
      "isApprovedForAll(address,address)": {
        "details": "See {IERC721-isApprovedForAll}."
      },
      "name()": {
        "details": "See {IERC721Metadata-name}."
      },
      "ownerOf(uint256)": {
        "details": "See {IERC721-ownerOf}."
      },
      "safeTransferFrom(address,address,uint256)": {
        "details": "See {IERC721-safeTransferFrom}."
      },
      "safeTransferFrom(address,address,uint256,bytes)": {
        "details": "See {IERC721-safeTransferFrom}."
      },
      "setApprovalForAll(address,bool)": {
        "details": "See {IERC721-setApprovalForAll}."
      },
      "supportsInterface(bytes4)": {
        "details": "See {IERC165-supportsInterface}."
      },
      "symbol()": {
        "details": "See {IERC721Metadata-symbol}."
      },
      "tokenByIndex(uint256)": {
        "details": "See {IERC721Enumerable-tokenByIndex}."
      },
      "tokenOfOwnerByIndex(address,uint256)": {
        "details": "See {IERC721Enumerable-tokenOfOwnerByIndex}."
      },
      "tokenURI(uint256)": {
        "details": "See {IERC721Metadata-tokenURI}."
      },
      "totalSupply()": {
        "details": "See {IERC721Enumerable-totalSupply}."
      },
      "transferFrom(address,address,uint256)": {
        "details": "See {IERC721-transferFrom}."
      }
    },
    "version": 1
  },
  "userdoc": {
    "kind": "user",
    "methods": {},
    "version": 1
  }
}